:100000000C942A000C9434000C9434000C943400AA
:100010000C9434000C9434000C9434000C94340090
:100020000C9434000C9434000C9434000C94340080
:100030000C9434000C9434000C9434000C94340070
:100040000C9434000C9434000C9434000C94340060
:100050000C94340011241FBECFE5D4E0DEBFCDBF29
:100060000E9436000C94B6000C9400008FEF87BB02
:100070001ABA81E092E024E038E040E150E260E426
:1000800070E8E9B3E11170C088BBEFE3FCE9319798
:10009000F1F700C0000098BBEFE3FCE93197F1F7FE
:1000A00000C0000028BBEFE3FCE93197F1F700C086
:1000B000000038BBEFE3FCE93197F1F700C0000026
:1000C00048BBEFE3FCE93197F1F700C0000058BBF3
:1000D000EFE3FCE93197F1F700C0000068BBEFE304
:1000E000FCE93197F1F700C0000078BBEFE3FCE9D1
:1000F0003197F1F700C0000078BBEFE3FCE93197DE
:10010000F1F700C0000068BBEFE3FCE93197F1F7BD
:1001100000C0000058BBEFE3FCE93197F1F700C0E5
:10012000000048BBEFE3FCE93197F1F700C00000A5
:1001300038BBEFE3FCE93197F1F700C0000028BBC2
:10014000EFE3FCE93197F1F700C0000098BBEFE363
:10015000FCE93197F1F700C0000088BBEFE3FCE950
:100160003197F1F700C0000018BA8BCFF894FFCF99
:00000001FF
