:100000000C942A000C9434000C9434000C943400AA
:100010000C9434000C9434000C9434000C94340090
:100020000C9434000C9434000C9434000C94340080
:100030000C9434000C9434000C9434000C94340070
:100040000C9434000C9434000C9434000C94340060
:100050000C94340011241FBECFE5D4E0DEBFCDBF29
:100060000E9436000C944F000C9400001ABA8FEFD7
:1000700081BB28E030E092B389B3990F8170892B5E
:1000800082BB4FEF81EE94E0415080409040E1F719
:1000900000C000002150310971F712BAEACFF8947C
:0200A000FFCF90
:00000001FF
