:100000000C942A000C9434000C9434000C943400AA
:100010000C9434000C9434000C9434000C94340090
:100020000C9434000C9434000C9434000C94340080
:100030000C9434000C9434000C9434000C94340070
:100040000C9434000C9434000C9434000C94340060
:100050000C94340011241FBECFE5D4E0DEBFCDBF29
:100060000E9436000C9450000C9400008FEF87BB68
:1000700088B388BB2FEF89E698E1215080409040FB
:10008000E1F700C0000088B3809588BB2FEF89E6B8
:1000900098E1215080409040E1F700C00000E8CF97
:0400A000F894FFCF02
:00000001FF
