:100000000C942A000C943F000C943F000C943F0089
:100010000C943F000C943F000C943F000C943F0064
:100020000C943F000C943F000C943F000C943F0054
:100030000C943F000C943F000C943F000C943F0044
:100040000C943F000C943F000C943F000C943F0034
:100050000C943F0011241FBECFE5D4E0DEBFCDBF1E
:1000600010E0A0E6B0E0E2EDF1E002C005900D92F4
:10007000AA36B107D9F70E944D000C94E7000C9402
:1000800000008A30910530F4FC01E05AFF4F808176
:1000900090E0089580E090E008958FEF8ABB87BBE1
:1000A00084BB81BB8FE38BBB88BB85BB82BBC1E0BC
:1000B000D0E020E030E0EAE0F0E004E610E088EE96
:1000C000E82E83E0F82E203187E238072CF021500B
:1000D0003109CFEFDFEF06C037FF04C02F5F3F4F7E
:1000E000C1E0D0E0C901BF010E94BF008A30910584
:1000F00028F4DC01A05ABF4F8C9102C080E090E050
:100100008BBBC901BF010E94BF00CB01BF010E9490
:10011000BF008A30910528F4DC01A05ABF4F8C91B2
:1001200002C080E090E088BBC901B8010E94BF0016
:10013000CB01BF010E94BF008A30910528F4DC0189
:10014000A05ABF4F8C9102C080E090E085BBC901EE
:10015000B7010E94BF006A30710528F4DB01A05A84
:10016000BF4F8C9102C080E090E082BB8FE99FE09E
:100170000197F1F700C000002C0F3D1FA4CF97FBA3
:10018000072E16F4009407D077FD09D00E94D30003
:1001900007FC05D03EF4909581959F4F089570958A
:1001A00061957F4F0895AA1BBB1B51E107C0AA1F91
:1001B000BB1FA617B70710F0A61BB70B881F991F08
:1001C0005A95A9F780959095BC01CD010895F894B2
:0201D000FFCF5F
:0A01D2003F065B4F666D7D077FEF6F
:00000001FF
