:100000000C942A000C943F000C943F000C943F0089
:100010000C943F000C943F000C943F000C943F0064
:100020000C943F000C943F000C943F000C943F0054
:100030000C943F000C943F000C943F000C943F0044
:100040000C943F000C943F000C943F000C943F0034
:100050000C943F0011241FBECFE5D4E0DEBFCDBF1E
:1000600010E0A0E6B0E0EEECF0E002C005900D92EA
:10007000AA36B107D9F70E944D000C9465000C9484
:1000800000008A30910530F4FC01E05AFF4F808176
:1000900090E0089580E090E008958FEF81BB12BA60
:1000A00080E090E0FC01E05AFF4F208122BB2FEF5F
:1000B00031EE44E0215030404040E1F700C0000004
:0E00C00001968A30910561F3EDCFF894FFCFE1
:0A00CE003F065B4F666D7D077FEF74
:00000001FF
