:100000000C942F000C9439000C9439000C94390096
:100010000C9439000C9439000C9439000C9439007C
:100020000C9439000C9439000C9439000C9439006C
:100030000C9439000C9439000C9439000C9439005C
:100040000C9439000C9439000C9439000C9439004C
:100050000C94390030313233343536373839112485
:100060001FBECFE5D8E0DEBFCDBF0E948F000C944D
:1000700095020C9400001ABA87E886B980E487B923
:1000800008958770806487B9369A349BFECF349A7E
:1000900089EF90E00197F1F700C0000084B195B1BD
:1000A000089592E095BB82BB15BA81EE94E001976A
:1000B000F1F700C00000089588E30E94510086E037
:1000C0000E9451008EE00E94510081E00E94510088
:1000D00080E80C94510093E095BB82BB81E085BB26
:1000E00081EE94E00197F1F700C000000895CF93EE
:1000F000DF930E946401CB016AE070E00E94CA00B5
:10010000EC01FB01EC5AFF4F84910E946B00FE0151
:10011000EC5AFF4F8491DF91CF910C946B008FEFDD
:1001200084BB81BB88E30E9451008FE00E94510094
:1001300081E00E9451000E943B000E945C0080E030
:100140000E944100BC01990F880B990B0E949C01F1
:1001500026EF38E24CE950E40E9428026B017C0152
:1001600080E80E94510081E00E94510020E030E0D0
:1001700040E251E4C701B6010E94F2000E947700FC
:100180002FE986E891E0215080409040E1F700C0DF
:100190000000D5CF97FB072E16F4009407D077FD0B
:1001A00009D00E94DE0007FC05D03EF490958195B1
:1001B0009F4F0895709561957F4F0895AA1BBB1BB3
:1001C00051E107C0AA1FBB1FA617B70710F0A61B57
:1001D000B70B881F991F5A95A9F780959095BC0178
:1001E000CD0108950E9406010C94EE010E94E701E2
:1001F00058F00E94E00140F029F45F3F29F00C9490
:10020000D70151110C9422020C94DD010E94FF01D0
:1002100068F39923B1F3552391F3951B550BBB2735
:10022000AA2762177307840738F09F5F5F4F220F7A
:10023000331F441FAA1FA9F335D00E2E3AF0E0E871
:1002400032D091505040E695001CCAF72BD0FE2FBB
:1002500029D0660F771F881FBB1F2617370748074F
:10026000AB07B0E809F0BB0B802DBF01FF27935807
:100270005F4F3AF09E3F510578F00C94D7010C94F3
:1002800022025F3FE4F3983ED4F386957795679515
:10029000B795F7959F5FC9F7880F911D969587953C
:1002A00097F90895E1E0660F771F881FBB1F62175B
:1002B00073078407BA0720F0621B730B840BBA0B19
:1002C000EE1F88F7E09508950E946B016894B111C4
:1002D0000C94220208950E94070288F09F5798F01C
:1002E000B92F9927B751B0F0E1F0660F771F881F3B
:1002F000991F1AF0BA95C9F714C0B13091F00E9455
:100300002102B1E008950C942102672F782F8827ED
:10031000B85F39F0B93FCCF3869577956795B3957B
:10032000D9F73EF490958095709561957F4F8F4FEA
:100330009F4F0895E89409C097FB3EF490958095EF
:10034000709561957F4F8F4F9F4F9923A9F0F92F9B
:1003500096E9BB279395F695879577956795B79519
:10036000F111F8CFFAF4BB0F11F460FF1BC06F5FFF
:100370007F4F8F4F9F4F16C0882311F096E911C011
:10038000772321F09EE8872F762F05C0662371F032
:1003900096E8862F70E060E02AF09A95660F771F46
:1003A000881FDAF7880F9695879597F9089597F93A
:1003B0009F6780E870E060E008959FEF80EC08950B
:1003C00000240A9416161706180609060895002434
:1003D0000A9412161306140605060895092E0394AE
:1003E000000C11F4882352F0BB0F40F4BF2B11F422
:1003F00060FF04C06F5F7F4F8F4F9F4F089557FD81
:100400009058440F551F59F05F3F71F04795880F82
:1004100097FB991F61F09F3F79F087950895121619
:1004200013061406551FF2CF4695F1DF08C01616C5
:1004300017061806991FF1CF869571056105089476
:100440000895E894BB2766277727CB0197F908958D
:100450000E943B020C94EE010E94E00138F00E94E1
:10046000E70120F0952311F00C94D7010C94DD01E5
:1004700011240C9422020E94FF0170F3959FC1F396
:10048000950F50E0551F629FF001729FBB27F00D42
:10049000B11D639FAA27F00DB11DAA1F649F662797
:1004A000B00DA11D661F829F2227B00DA11D621FE6
:1004B000739FB00DA11D621F839FA00D611D221FA0
:1004C000749F3327A00D611D231F849F600D211D84
:1004D000822F762F6A2F11249F5750409AF0F1F007
:1004E00088234AF0EE0FFF1FBB1F661F771F881F70
:1004F00091505040A9F79E3F510580F00C94D701D0
:100500000C9422025F3FE4F3983ED4F386957795EE
:100510006795B795F795E7959F5FC1F7FE2B880F15
:0E052000911D9695879597F90895F894FFCF51
:00000001FF
