:100000000C9430000C944D000C944D000C944D0059
:100010000C944D000C944D000C944D000C944D002C
:100020000C944D000C944D000C944D000C944D001C
:100030000C944D000C944D000C944D000C944D000C
:100040000C944D000C944D000C944D000C944D00FC
:100050000C944D003134372A323538303336392359
:1000600011241FBECFE5D8E0DEBFCDBF11E0A0E672
:10007000B0E0E0ECF6E002C005900D92AE34B107BE
:10008000D9F721E0AEE4B1E001C01D92A335B2077B
:10009000E1F70E949D010C945E030C94000096B35E
:1000A0009F7081E009F480E0089596B39F7081E02D
:1000B00009F080E0089586B38F70813061F086B3D7
:1000C0008F70823051F026B32F7081E090E02430A1
:1000D00031F080E0089583E001C082E090E008956F
:1000E00080E688BB86B38F7029F480E788BB82E006
:1000F00090E0089580E588BB86B38F7029F480E78F
:1001000088BB81E090E0089580E388BB86B38F7060
:1001100011F480E788BB80E090E0089592E095BB01
:100120008BBB15BA81EE94E00197F1F700C0000097
:10013000089588E30E948E0086E00E948E008EE083
:100140000E948E0081E00E948E0080E80C948E0058
:1001500093E095BB8BBB81E085BB81EE94E001977A
:10016000F1F700C0000008950F931F93CF93DF9322
:10017000EC018C01FE0101900020E9F73197EC1BA6
:10018000FD0BC8018C1B9D0B8E179F0730F4F801E7
:1001900081918F010E94A800EDCFDF91CF911F9137
:1001A0000F910895CF93DF93009759F46330710551
:1001B00039F18091510190915201EB01C45ADF4F06
:1001C00017C08130910541F4809151019091520105
:1001D000EB01C85ADF4F0CC00297A1F463307105E0
:1001E00099F08091510190915201EB01CC5ADF4F6F
:1001F000089724F4FE0184910E94A800888105C01C
:1002000083E203C088E501C08AE2DF91CF910895BF
:1002100080E80E948E0081E00C948E000E9408010C
:1002200082E890E00E94B4002FE38DE093E021503B
:1002300080409040E1F700C0000008950E9408014E
:1002400083E990E00E94B4002FE38DE093E0215019
:1002500080409040E1F700C0000008950E9408012E
:1002600084EA90E00E94B4002FE986E891E02150F2
:1002700080409040E1F700C000008FE091E00E94D4
:10028000B4002FE986E891E0215080409040E1F7EA
:1002900000C000008FE091E00E94B4002FE986E8E2
:1002A00091E0215080409040E1F700C000008FE0D5
:1002B00091E00E94B4002FE986E891E0215080404F
:1002C0009040E1F700C00000C9CFE0E6F0E088E52B
:1002D000819390E0E836F907D9F710925201109215
:1002E0005101089590E080E05F9BFECF839B04C0A6
:1002F0008CB18093800081E0849905C08823A1F3AC
:10030000992391F308959CB190938100811102C0CB
:1003100091E0EACF089510BC83E389B91BB880E16E
:100320008AB986E880BD089510BC83E389B91BB8FB
:1003300088E08AB986E880BD089584E681BB12BA58
:1003400080E787BB88BB8FEF84BB8ABB0E948B0191
:1003500088E30E948E008FE00E948E0081E00E9460
:100360008E000E9499000E94650102E010E0FF24C7
:10037000F39494E0E92EC8E6D0E020914F0130914B
:10038000500180914E012115310599F58111CFC0A1
:100390000E94080182EB90E00E94B40080EC0E9471
:1003A0008E0083EC90E00E94B4002FEB87E299E08E
:1003B000215080409040E1F700C000000E940801F9
:1003C00084ED90E00E94B40080EC0E948E0085EEE7
:1003D00090E00E94B400EFEBF7E229E0E150F0403A
:1003E0002040E1F700C000000E94080186EF90E085
:1003F00097C02130310599F5811199C00E940801FB
:1004000082EB90E00E94B40080EC0E948E0083ECAE
:1004100090E00E94B4008FEB97E2E9E081509040B9
:10042000E040E1F700C000000E94080184ED90E088
:100430000E94B40080EC0E948E0080E091E00E9457
:10044000B400FFEB27E289E0F15020408040E1F763
:1004500000C000000E94080181E191E061C010939A
:10046000500100934F01811162C00E9472010E94ED
:1004700008018DE191E00E94B400809181000E940A
:10048000A800809180000E94A80080EC0E948E004D
:100490008CE291E00E94B40088E7C82E80E0D82E5C
:1004A000F60181916F010E94A800FCE7CF16F0E0F1
:1004B000DF06B1F78FE20E94A80080917C000E94C5
:1004C000A80080917D000E94A80080917E000E947B
:1004D000A80080917F000E94A8002FEB87E299E09E
:1004E000215080409040E1F700C000000E940801C8
:1004F00082EB90E00E94B40080EC0E948E0083ECBE
:1005000090E00E94B400EFEBF7E229E0E150F04008
:100510002040E1F700C000000E9408018DE391E057
:100520000E94B40080EC0E948E00F0924E010E9466
:100530004F00882309F421CF0E945B006C010E94C8
:10054000700020914F013091500121153105E9F4DF
:10055000B6010E94D200833299F40E940801809172
:1005600051019091520108970CF4A3C0E0E6F0E02D
:10057000A0E7B0E081918D93CE17DF07D9F71DC0BA
:100580008A32A1F50E9408012AC021303105B9F54F
:10059000B6010E94D200833201F580915101909101
:1005A000520108970CF485C0E0E6F0E0A8E6B0E060
:1005B00081918D93CE17DF07D9F70E9465010E94C4
:1005C0000E0110924E0180914F01909150010196C1
:1005D0009093500180934F016CC08A3239F40E948D
:1005E000650110924E010E94080163C020915101E3
:1005F00030915201283031050CF05BC04FC02230E1
:10060000310509F056C0B6010E94D2008332E1F5EF
:10061000809151019091520102970CF44AC00E94BE
:10062000940182B38E2582BB82B38F79806282BBB4
:10063000809160008CB95D9BFECF8FE392E4EFE088
:1006400081509040E040E1F700C0000082B38F7914
:10065000806482BB809161008CB95D9BFECFFFE31B
:1006600022E48FE0F15020408040E1F700C000001C
:1006700082B38F7982BB0E948B010E9465010E9428
:100680000E0110924E0115C08A3209F4A8CF2091B4
:10069000510130915201223031055CF4A9014F5FC4
:1006A0005F4F5093520140935101F901E05AFF4FBF
:1006B00080830E9455008823E1F35FCEF894FFCF3A
:1006C00058585858585858585858585858585858AA
:1006D00058585858585858583133373830323031C4
:1006E0005858202020205265636569766564202073
:1006F0002020002057656C636F6D65202041646D7C
:10070000696E2000556E6465722050726F63657368
:100710007300202020202A203D20636C6561722018
:1007200020200020202023203D20636F6E66697208
:100730006D202000456E7465722038204E756D6204
:100740006572732000466F722041646D696E2049A6
:10075000442E2E2E200041646D696E2049443A00DB
:10076000466F722041646D696E20506173732E2E46
:100770000041646D696E20506173733A0074656D59
:100780007065726174757265203A200064617465E9
:100790003A20313337382F30322F303100456E74E4
:0E07A000657220526F746174696F6E3A0000CA
:00000001FF
