:100000000C942F000C9492000C944C000C944C0017
:100010000C944C000C944C000C944C000C944C0030
:100020000C944C000C944C000C944C000C944C0020
:100030000C944C000C944C000C944C000C944C0010
:100040000C944C000C944C000C944C000C944C0000
:100050000C944C0030313233343536373839112472
:100060001FBECFE5D8E0DEBFCDBF10E0A0E6B0E018
:10007000E2E8F6E002C005900D92AA36B107D9F782
:1000800020E0AAE6B0E001C01D92AE36B207E1F76B
:100090000E940B010C943F030C9400007894089587
:1000A0001ABA87E886B980E487B9089587708064B2
:1000B00087B9369A349BFECF349A89EF90E0019746
:1000C000F1F700C0000084B195B1089580916C00F3
:1000D00090916D000196843091052CF490936D0001
:1000E00080936C0004C010926D0010926C00E0913F
:1000F0006C00F0916D00EE59FF4F808188BB089530
:1001000010BC83E389B91BB880E18AB986E880BD59
:10011000089510BC83E389B91BB888E08AB986E8E2
:1001200080BD08951F920F920FB60F9211240F9366
:100130001F932F933F934F935F936F937F938F936F
:100140009F93AF93BF93CF93DF93EF93FF930E945F
:10015000800080916A0090916B00181619061CF4BB
:1001600020E030E017C0019690936B0080936A0006
:100170003BC05F9BFECF849B09C08CB188BBE091E4
:100180006000F09161008CB1808321E0859909C005
:1001900031110FC090B380B390718072892B88BBEE
:1001A000E8CF8CB188BBE0916000F09161008CB128
:1001B0008183211102C031E0EDCF18BA8091600037
:1001C000909161000E9419038C01C0E0D0E0C0173B
:1001D000D10754F40E94660083ED90E30197F1F794
:1001E00000C000002196F3CF0E948900FF91EF919B
:1001F000DF91CF91BF91AF919F918F917F916F913F
:100200005F914F913F912F911F910F910F900FBED2
:100210000F901F901895789480E48BBF81E085BF84
:1002200083E084BB11BA8FEF87BB0E9489000E94D4
:100230005000CAE0D0E011E002E080E00E945600E9
:10024000BC01990F880B990B0E94200226EF38E21F
:100250004CE950E40E94AC0220E030E040E251E47E
:100260000E9476010E94E8019B01CB01BE010E9421
:100270004E01FB01EC5AFF4FE491ECB915BB5D9BBD
:10028000FECFC901BE010E944E01FC01EC5AFF4F96
:10029000E491ECB905BB5D9BFECFCFCF97FB072E5A
:1002A00016F4009407D077FD09D00E94620107FC84
:1002B00005D03EF4909581959F4F08957095619576
:1002C0007F4F0895AA1BBB1B51E107C0AA1FBB1F8C
:1002D000A617B70710F0A61BB70B881F991F5A95D2
:1002E000A9F780959095BC01CD0108950E948A01DF
:1002F0000C9472020E946B0258F00E94640240F05B
:1003000029F45F3F29F00C945B0251110C94A60272
:100310000C9461020E94830268F39923B1F3552380
:1003200091F3951B550BBB27AA2762177307840708
:1003300038F09F5F5F4F220F331F441FAA1FA9F39E
:1003400035D00E2E3AF0E0E832D091505040E6958C
:10035000001CCAF72BD0FE2F29D0660F771F881FED
:10036000BB1F261737074807AB07B0E809F0BB0BE0
:10037000802DBF01FF2793585F4F3AF09E3F5105F4
:1003800078F00C945B020C94A6025F3FE4F3983E75
:10039000D4F3869577956795B795F7959F5FC9F7DD
:1003A000880F911D9695879597F90895E1E0660F5E
:1003B000771F881FBB1F621773078407BA0720F0D7
:1003C000621B730B840BBA0BEE1F88F7E095089540
:1003D0000E94EF016894B1110C94A60208950E9446
:1003E0008B0288F09F5798F0B92F9927B751B0F03A
:1003F000E1F0660F771F881F991F1AF0BA95C9F7A9
:1004000014C0B13091F00E94A502B1E008950C949F
:10041000A502672F782F8827B85F39F0B93FCCF352
:10042000869577956795B395D9F73EF49095809525
:10043000709561957F4F8F4F9F4F0895E89409C045
:1004400097FB3EF490958095709561957F4F8F4F07
:100450009F4F9923A9F0F92F96E9BB279395F6951D
:10046000879577956795B795F111F8CFFAF4BB0F9B
:1004700011F460FF1BC06F5F7F4F8F4F9F4F16C0FF
:10048000882311F096E911C0772321F09EE8872F89
:10049000762F05C0662371F096E8862F70E060E045
:1004A0002AF09A95660F771F881FDAF7880F9695BE
:1004B000879597F9089597F99F6780E870E060E065
:1004C00008959FEF80EC089500240A9416161706ED
:1004D00018060906089500240A9412161306140635
:1004E00005060895092E0394000C11F4882352F098
:1004F000BB0F40F4BF2B11F460FF04C06F5F7F4F50
:100500008F4F9F4F089557FD9058440F551F59F036
:100510005F3F71F04795880F97FB991F61F09F3FF0
:1005200079F087950895121613061406551FF2CF19
:100530004695F1DF08C0161617061806991FF1CF69
:1005400086957105610508940895E894BB27662790
:100550007727CB0197F908950E94BF020C9472028D
:100560000E94640238F00E946B0220F0952311F083
:100570000C945B020C94610211240C94A6020E945C
:10058000830270F3959FC1F3950F50E0551F629F52
:10059000F001729FBB27F00DB11D639FAA27F00DDC
:1005A000B11DAA1F649F6627B00DA11D661F829F03
:1005B0002227B00DA11D621F739FB00DA11D621FE8
:1005C000839FA00D611D221F749F3327A00D611D05
:1005D000231F849F600D211D822F762F6A2F1124E7
:1005E0009F5750409AF0F1F088234AF0EE0FFF1F1A
:1005F000BB1F661F771F881F91505040A9F79E3F71
:10060000510580F00C945B020C94A6025F3FE4F36A
:10061000983ED4F3869577956795B795F795E795C6
:100620009F5FC1F7FE2B880F911D9695879597F9CF
:100630000895FC0188279927E89421912032E9F355
:10064000293010F02E30C8F32B3241F02D3239F41E
:10065000689404C00E943703820F911D219120539A
:100660002A30C0F31EF4909581959F4F08957AE04B
:10067000979F902D879F802D910D11240895F894B8
:02068000FFCFAA
:0A068200660005060A09585800003A
:00000001FF
