:100000000C9430000C944D000C944D000C944D0059
:100010000C944D000C944D000C944D000C944D002C
:100020000C944D000C944D000C944D000C944D001C
:100030000C944D000C944D000C944D000C944D000C
:100040000C944D000C944D000C944D000C944D00FC
:100050000C944D003134372A323538303336392359
:1000600011241FBECFE5D8E0DEBFCDBF10E0A0E673
:10007000B0E0ECEBF3E002C005900D92AE3BB107AF
:10008000D9F720E0AEEBB0E001C01D92A13CB20771
:10009000E1F70E9457010C94DC010C94000096B328
:1000A0009F7081E009F480E0089596B39F7081E02D
:1000B00009F080E0089586B38F70813061F086B3D7
:1000C0008F70823051F026B32F7081E090E02430A1
:1000D00031F080E0089583E001C082E090E008956F
:1000E00080E688BB86B38F7029F480E788BB82E006
:1000F00090E0089580E588BB86B38F7029F480E78F
:1001000088BB81E090E0089580E388BB86B38F7060
:1001100011F480E788BB80E090E0089592E095BB01
:1001200082BB15BA81EE94E00197F1F700C00000A0
:10013000089588E30E948E0086E00E948E008EE083
:100140000E948E0081E00E948E0080E80C948E0058
:1001500093E095BB82BB81E085BB81EE94E0019783
:10016000F1F700C0000008950F931F93CF93DF9322
:10017000EC018C01FE0101900020E9F73197EC1BA6
:10018000FD0BC8018C1B9D0B8E179F0730F4F801E7
:1001900081918F010E94A800EDCFDF91CF911F9137
:1001A0000F910895CF93DF93009739F46330710571
:1001B000C9F0EB01C45ADF4F0FC08130910521F423
:1001C000EB01C85ADF4F08C0029771F46330710524
:1001D00069F0EB01CC5ADF4FFE0184910E94A80028
:1001E000888105C083E203C08BE301C08AE2DF910E
:1001F000CF91089580E80E948E0081E00C948E00DB
:100200000E94FA0080E690E00E94B4002FE38DE0A7
:1002100093E0215080409040E1F700C00000089535
:100220000E94FA0081E790E00E94B4002FE38DE085
:1002300093E0215080409040E1F700C00000089515
:100240000E94FA0082E890E00E94B4002FE986E85C
:1002500091E0215080409040E1F700C0000080E92B
:1002600090E00E94B4002FE986E891E021508040A0
:100270009040E1F700C0000080E990E00E94B400E7
:100280002FE986E891E0215080409040E1F700C0DE
:10029000000080E990E00E94B4002FE986E891E038
:1002A000215080409040E1F700C00000C9CF80E7B6
:1002B00087BB88BB8FEF84BB81BB88E30E948E0025
:1002C0008FE00E948E0081E00E948E000E949900C3
:1002D000C1E02091BF003091C0008091BE00211587
:1002E0003105B1F4811136C00E94FA0082E990E034
:1002F0000E94B4002FEB87E299E0215080409040AB
:10030000E1F700C000000E94FA0083EA90E018C004
:1003100021303105E9F481111DC00E94FA0082E903
:1003200090E00E94B4002FE38DE093E021508040E4
:100330009040E1F700C000000E94FA008DEA90E0D2
:100340000E94B40080EC0E948E00C093BE0002C0E8
:100350000E9420010E944F00882309F4BACF0E9416
:100360005B008C010E9470002091BF003091C000A2
:100370002115310519F021303105C9F4B8010E9469
:10038000D200833239F08A3291F41092BE000E947A
:10039000FA000DC00E9400011092BE008091BF00C3
:1003A0009091C00001969093C0008093BF000E947E
:0C03B00055008823E1F38DCFF894FFCFB7
:1003BC00202020205265636569766564202020200A
:1003CC00002057656C636F6D65202041646D696E0C
:1003DC002000556E6465722050726F6365737300F4
:1003EC002E002A3D636C65617220233D66696E693F
:1003FC0073680041646D696E2049443A0041646D34
:0E040C00696E2050617373776F72643A00005E
:00000001FF
