:100000000C942A000C943F000C943F000C943F0089
:100010000C943F000C943F000C943F000C943F0064
:100020000C943F000C943F000C943F000C943F0054
:100030000C943F000C943F000C943F000C943F0044
:100040000C943F000C943F000C943F000C943F0034
:100050000C943F0011241FBECFE5D4E0DEBFCDBF1E
:1000600011E0A0E6B0E0E0E6F1E002C005900D92FC
:10007000A832B107D9F70E9441000C94AE000C944D
:100080000000CF93DF93CDB7DEB7C85CD1090FB6C0
:10009000F894DEBF0FBECDBF88ECE0E6F0E08E0145
:1000A0000F5F1F4FD80101900D928A95E1F78FEFF6
:1000B00084BB15BAE199FECFF80101900020E9F761
:1000C0003197AF01401B510B60E070E0C8010E9406
:1000D000970088EF9FEFF80101900020E9F7319732
:1000E000E01BF10B8E179F0710F080E090E040E0DE
:1000F00050E0F801E80FF91F2081022E000C330BAD
:10010000042E02C0359527950A94E2F725BB2FEF00
:1001100031EE64E0215030406040E1F700C0000063
:100120004F5F5F4F4830510539F70196D4CFDC015E
:10013000CB0103C02D910E94A20041505040D0F746
:100140000895262FE199FECF9FBB8EBB2DBB0FB626
:10015000F894E29AE19A0FBE01960895F894FFCFC1
:100160003037323037323237373735323035333651
:100170003137333231333635343736393039363733
:100180003333373636383434373737383431303024
:100190003235353839313134303333383635363518
:1001A00039393138363538343038353637343730F8
:1001B00035343033373437363931303930333135FF
:1001C00032373338333538333335303432373931E9
:1001D00030383435373739373835353336323432CD
:1001E00036333134323938303233353238353533CD
:1001F00030303038363135323336363930333938BD
:1002000033363634383631313637393532303237A5
:10021000323735313636353639303331393339378F
:0802200035333635343131006D
:00000001FF
