:100000000C942A000C9447000C9447000C94470071
:100010000C9447000C9447000C9447000C94470044
:100020000C9447000C9447000C9447000C948400F7
:100030000C9447000C9447000C9447000C94470024
:100040000C9447000C9447000C9447000C94470014
:100050000C94470011241FBECFE5D8E0DEBFCDBF12
:1000600010E0A0E6B0E0E0E7F3E002C005900D92FA
:10007000AC36B107D9F720E0ACE6B0E001C01D9284
:10008000AA37B207E1F70E94FC000C94B6010C9469
:1000900000007894089581E083BF89BF12BE08955F
:1000A00080917400909175000196843091052CF434
:1000B000909375008093740004C0109275001092A4
:1000C0007400E0917400F0917500E05AFF4F808158
:1000D0008BBB0895809172009091730001968430DB
:1000E00091052CF4909373008093720004C01092D9
:1000F000730010927200E0917200F0917300E05A68
:10010000FF4F808188BB08951F920F920FB60F9208
:1001100011242F933F934F935F936F937F938F930C
:100120009F93AF93BF93EF93FF936091780070918B
:1001300079006F5F7F4F7093790060937800072E8E
:10014000000C880B990B0E945201E0916E00F09117
:100150006F00EE0FFF1FEE0FFF1FEC59FF4F2081C6
:100160003181428153810E948D0187FD09C0109227
:100170007900109278008091710081110E945000E6
:1001800060917600709177006F5F7F4F709377007A
:1001900060937600072E000C880B990B0E94520189
:1001A000E0916C00F0916D00EE0FFF1FEE0FFF1F4E
:1001B000EC59FF4F20813181428153810E948D0192
:1001C00087FD09C010927700109276008091700030
:1001D00081110E946A00FF91EF91BF91AF919F91B1
:1001E0008F917F916F915F914F913F912F910F90E0
:1001F0000FBE0F901F90189514BA8FEF8ABB87BB64
:100200001BBA18BA78940E944B0081E021E030E0DC
:1002100093B3492F4D71413029F4109271004093EE
:10022000700028C0492F4B71423049F4809371000F
:100230008093700030936F0020936E000CC0592F94
:100240005F71543069F48093710080937000109254
:100250006F0010926E0010926D0010926C00D8CF5B
:10026000483069F4809371008093700010926F00A1
:1002700010926E0030936D0020936C00C9CF97717F
:10028000903149F4809371001092700030936F00A8
:1002900020936E00BDCF1092710010927000B8CF05
:1002A000E89409C097FB3EF4909580957095619510
:1002B0007F4F8F4F9F4F9923A9F0F92F96E9BB27C6
:1002C0009395F695879577956795B795F111F8CF42
:1002D000FAF4BB0F11F460FF1BC06F5F7F4F8F4FAD
:1002E0009F4F16C0882311F096E911C0772321F0A3
:1002F0009EE8872F762F05C0662371F096E8862F3B
:1003000070E060E02AF09A95660F771F881FDAF791
:10031000880F9695879597F908950E94920108F4A1
:100320008FEF0895990F0008550FAA0BE0E8FEEF34
:1003300016161706E807F907C0F012161306E407A9
:10034000F50798F0621B730B840B950B39F40A26A2
:1003500061F0232B242B252B21F408950A2609F480
:10036000A140A6958FEF811D811D0895F894FFCFC0
:0C03700005060A09005043430050C34337
:00000001FF
