:100000000C942A000C9447000C9447000C94470071
:100010000C9447000C9447000C9447000C94470044
:100020000C9447000C9447000C9447000C948B00F0
:100030000C9447000C9447000C9447000C94470024
:100040000C9447000C9447000C9447000C94470014
:100050000C94470011241FBECFE5D8E0DEBFCDBF12
:1000600010E0A0E6B0E0E6ECF2E002C005900D92F0
:10007000A836B107D9F720E0A8E6B0E001C01D928C
:10008000A037B207E1F70E94CF000C9461010C94F5
:1000900000007894089581E083BF89BF12BE08955F
:1000A000809169008823C9F080916C0090916D0067
:1000B0000196843091052CF490936D0080936C0030
:1000C00004C010926D0010926C00E0916C00F091F1
:1000D0006D00E05AFF4F80818BBB809168008823C0
:1000E000C9F080916A0090916B000196843091056F
:1000F0002CF490936B0080936A0004C010926B0004
:1001000010926A00E0916A00F0916B00E05AFF4F94
:10011000808188BB08951F920F920FB60F92112411
:100120002F933F934F935F936F937F938F939F93FF
:10013000AF93BF93EF93FF9360916E0070916F0048
:100140006F5F7F4F70936F0060936E00072E000CFF
:10015000880B990B0E94FD0020916400309165008E
:1001600040916600509167000E94380187FD06C0EB
:1001700010926F0010926E000E945000FF91EF915C
:10018000BF91AF919F918F917F916F915F914F91AF
:100190003F912F910F900FBE0F901F90189514BA9A
:1001A0008FEF8ABB87BB1BBA18BA78940E944B00AA
:1001B00091E083B3282F2D71213019F4109269003A
:1001C0000AC0282F2B712230C9F3382F3F713430E9
:1001D00029F49093690090936800EBCF283019F4CC
:1001E0009093690005C087718031D1F31092690046
:1001F00010926800DECFE89409C097FB3EF490951A
:100200008095709561957F4F8F4F9F4F9923A9F0EF
:10021000F92F96E9BB279395F6958795779567957E
:10022000B795F111F8CFFAF4BB0F11F460FF1BC0C2
:100230006F5F7F4F8F4F9F4F16C0882311F096E955
:1002400011C0772321F09EE8872F762F05C0662303
:1002500071F096E8862F70E060E02AF09A95660FBC
:10026000771F881FDAF7880F9695879597F9089575
:100270000E943D0108F48FEF0895990F0008550F73
:10028000AA0BE0E8FEEF16161706E807F907C0F01C
:1002900012161306E407F50798F0621B730B840B24
:1002A000950B39F40A2661F0232B242B252B21F4FE
:1002B00008950A2609F4A140A6958FEF811D811D9E
:0602C0000895F894FFCF41
:0802C60005060A090050C343BC
:00000001FF
