:100000000C942A000C9434000C9434000C943400AA
:100010000C9434000C9434000C9434000C94340090
:100020000C9434000C9434000C9434000C94340080
:100030000C9434000C9434000C9434000C94340070
:100040000C9434000C9434000C9434000C94340060
:100050000C94340011241FBECFE5D4E0DEBFCDBF29
:100060000E9436000C9446000C94000081E08ABB8C
:1000700091E08BB389278BBB2FEF39E688E12150C4
:1000800030408040E1F700C00000F3CFF894FFCF8C
:00000001FF
