:100000000C942A000C943F000C943F000C943F0089
:100010000C943F000C943F000C943F000C943F0064
:100020000C943F000C943F000C943F000C943F0054
:100030000C943F000C943F000C943F000C943F0044
:100040000C943F000C943F000C943F000C943F0034
:100050000C943F0011241FBECFE5D4E0DEBFCDBF1E
:1000600010E0A0E6B0E0EAE4F1E002C005900D92F5
:10007000AC37B107D9F70E9476000C94A3000C941A
:10008000000092E095BB82BB15BA8FE59AEE01970E
:10009000F1F700C00000089593E095BB82BB81E0BA
:1000A00085BB8FE59AEE0197F1F700C00000089537
:1000B0000F931F93CF93DF93EC018C01FE0101900E
:1000C0000020E9F73197EC1BFD0BC8018C1B9D0B41
:1000D0008E179F0730F4F80181918F010E944C0028
:1000E000EDCFDF91CF911F910F9108958FEF84BBDA
:1000F00081BB88E30E9441008FE00E94410081E0C3
:100100000E94410080E80E94410080E690E00E9449
:1001100058002FEF80E792E0215080409040E1F7B7
:1001200000C0000080EC0E9441008CE690E00E943C
:1001300058002FEF81EE94E0215080409040E1F78D
:0A01400000C00000DCCFF894FFCFF0
:10014A0048656C6C6F20576F726C640054686973F1
:0C015A00206973206E696365203A29005B
:00000001FF
