:100000000C942A000C9447000C9447000C94470071
:100010000C9447000C9447000C9447000C94470044
:100020000C9447000C9447000C94C9000C94760083
:100030000C9447000C9447000C9447000C94470024
:100040000C9447000C9447000C9447000C94470014
:100050000C94470011241FBECFE5D8E0DEBFCDBF12
:1000600010E0A0E6B0E0E8E3F4E002C005900D92F5
:10007000A636B107D9F720E0A6E6B0E001C01D9290
:10008000AC36B207E1F70E941E010C941A020C94E0
:1000900000007894089581E183BF83E089BF12BE98
:1000A00080E88CBF08952091640080916600909153
:1000B0006700222349F001968430910554F0109294
:1000C00067001092660009C0019797FF02C083E0A5
:1000D00090E09093670080936600E0916600F09155
:1000E0006700E05AFF4F80818BBB08951F920F92EB
:1000F0000FB60F921124CF92DF92EF92FF922F93BF
:100100003F934F935F936F937F938F939F93AF939F
:10011000BF93EF93FF9320E030E040E05FE3609116
:1001200068007091690080916A0090916B000E9454
:1001300034016B017C0120E030E04CE951E40E9485
:10014000F10187FF09C0C0926800D0926900E09277
:100150006A00F0926B0008C010926800109269006B
:1001600010926A0010926B00FF91EF91BF91AF91D6
:100170009F918F917F916F915F914F913F912F91BF
:10018000FF90EF90DF90CF900F900FBE0F901F90D9
:1001900018951F920F920FB60F921124CF92DF92F3
:1001A000EF92FF922F933F934F935F936F937F93C1
:1001B0008F939F93AF93BF93EF93FF9320E030E033
:1001C00040E05FE3609168007091690080916A008F
:1001D00090916B000E9434016B017C0120E030E0C3
:1001E0004CE951E40E94F10187FF09C0C092680008
:1001F000D0926900E0926A00F0926B000AC01092FF
:1002000068001092690010926A0010926B000E94C0
:100210005300FF91EF91BF91AF919F918F917F918B
:100220006F915F914F913F912F91FF90EF90DF90F1
:10023000CF900F900FBE0F901F90189514BACFEF6C
:10024000CABB1BBA0E944B007894C1BB12BA81E0B2
:100250009FEF9A9B04C08093640092BBFACF1092E8
:10026000640012BAF6CF5058BB27AA270E944B0150
:100270000C94B7010E94A90138F00E94B00120F04F
:1002800039F49F3F19F426F40C94A6010EF4E0957E
:10029000E7FB0C94A001E92F0E94C80158F3BA179C
:1002A000620773078407950720F079F4A6F50C948C
:1002B000EA010EF4E0950B2EBA2FA02D0B01B90127
:1002C00090010C01CA01A0011124FF27591B99F0CC
:1002D000593F50F4503E68F11A16F040A22F232FD8
:1002E000342F4427585FF3CF469537952795A79528
:1002F000F0405395C9F77EF41F16BA0B620B730BCF
:10030000840BBAF09150A1F0FF0FBB1F661F771F3F
:10031000881FC2F70EC0BA0F621F731F841F48F4F4
:10032000879577956795B795F7959E3F08F0B0CF7D
:100330009395880F08F09927EE0F97958795089564
:1003400097F99F6780E870E060E008959FEF80EC88
:10035000089500240A94161617061806090608952B
:1003600000240A9412161306140605060895092E91
:100370000394000C11F4882352F0BB0F40F4BF2B00
:1003800011F460FF04C06F5F7F4F8F4F9F4F089540
:1003900057FD9058440F551F59F05F3F71F0479536
:1003A000880F97FB991F61F09F3F79F0879508951B
:1003B000121613061406551FF2CF4695F1DF08C03A
:1003C000161617061806991FF1CF86957105610557
:1003D00008940895E894BB2766277727CB0197F9FF
:1003E00008950E94F60108F48FEF0895990F000810
:1003F000550FAA0BE0E8FEEF16161706E807F907F7
:10040000C0F012161306E407F50798F0621B730B91
:10041000840B950B39F40A2661F0232B242B252B12
:1004200021F408950A2609F4A140A6958FEF811DB5
:08043000811D0895F894FFCF2F
:0604380005060A0901009F
:00000001FF
