:100000000C942F000C9441000C9441000C9441007E
:100010000C9441000C9441000C9441000C9441005C
:100020000C9441000C9441000C9441000C9441004C
:100030000C9441000C9441000C9441000C9441003C
:100040000C9441000C9441000C9441000C9441002C
:100050000C9441003031323334353637383911247D
:100060001FBECFE5D4E0DEBFCDBF20E0A0E6B0E00C
:1000700001C01D92A636B207E1F70E94F6000C946B
:1000800040010C94000085B5846085BD14BC0895C2
:1000900092E095BB82BB15BA81EE94E00197F1F72F
:1000A00000C00000089588E30E94480086E00E9496
:1000B00048008EE00E94480081E00E94480080E8ED
:1000C0000C94480093E095BB82BB81E085BB81EE38
:1000D00094E00197F1F700C000000895809164005A
:1000E0009091650001968C3391052CF490936500F6
:1000F000809364000DC0109265001092640080919E
:100100006200909163000196909363008093620077
:100110008091620090916300CC976CF01092630024
:10012000109262008091600090916100019690931E
:100130006100809360000895CF93DF938091600009
:1001400090916100CAE0D0E0BE010E941801FB015D
:10015000EC5AFF4F84910E94620080916000909160
:100160006100BE010E941801FC01EC5AFF4F84910E
:100170000E9462008AE30E94620080916200909176
:100180006300BE010E941801FB01EC5AFF4F8491ED
:100190000E9462008091620090916300BE010E9403
:1001A0001801FC01EC5AFF4F84910E9462008AE31F
:1001B0000E9462008091640090916500BE010E94DF
:1001C0001801FB01EC5AFF4F84910E94620080915C
:1001D000640090916500BE010E941801FC01EC5A78
:1001E000FF4F8491DF91CF910C9462008FEF84BB1D
:1001F00081BB88E30E9448008FE00E94480081E0B4
:100200000E9448000E9443000E94530080E090E05A
:1002100024B52D3710F0019614BC8D379105C4F329
:1002200081E00E9448000E946E000E949C00EECF78
:1002300097FB072E16F4009407D077FD09D00E9493
:100240002C0107FC05D03EF4909581959F4F0895B1
:10025000709561957F4F0895AA1BBB1B51E107C0A4
:10026000AA1FBB1FA617B70710F0A61BB70B881F46
:10027000991F5A95A9F780959095BC01CD010895D5
:04028000F894FFCF20
:00000001FF
