:100000000C942B000C9453000C9453000C9453004C
:100010000C9453000C9453000C9453000C94530014
:100020000C9453000C9453000C9453000C94CF0088
:100030000C9453000C9453000C9453000C945300F4
:100040000C9453000C9453000C9453000C945300E4
:100050000C945300250111241FBECFE5D8E0DEBF6C
:10006000CDBF10E0A0E6B0E0ECE3F5E002C0059003
:100070000D92AE38B107D9F720E0AEE8B0E001C08C
:100080001D92AC39B207E1F710E0CBE2D0E004C03A
:100090002197FE010E944201CA32D107C9F70E948E
:1000A0001D010C949C020C9400007894089581E04A
:1000B00083BF89BF12BE08952091640080918E0095
:1000C00090918F00222349F001968430910554F0DD
:1000D00010928F0010928E0009C0019797FF02C006
:1000E00083E090E090938F0080938E008091940045
:1000F0009091950001968A3091052CF4909395008B
:100100008093940043C010929500109294008091C7
:100110009A0090919B00222369F09C012F5F3F4F32
:1001200030939B0020939A002A3031059CF0109266
:1001300064000CC09C012150310930939B00209336
:100140009A0037FF07C021E02093640090939B0042
:1001500080939A00E0919A00F0919B00EE0FFF1FB0
:10016000EE0FFF1FEB59FF4F20E034E244E755E468
:1001700060817181828193810E940B02609396005D
:10018000709397008093980090939900E0918E006F
:10019000F0918F00E05AFF4F80818BBB08951F9232
:1001A0000F920FB60F9211242F933F934F935F93AB
:1001B0006F937F938F939F93AF93BF93EF93FF932F
:1001C00020E030E040E85FE36091900070919100A2
:1001D00080919200909193000E9449016093900059
:1001E00070939100809392009093930020919600D9
:1001F0003091970040919800509199000E9406021A
:1002000087FD0AC010929000109291001092920007
:10021000109293000E945C00FF91EF91BF91AF910B
:100220009F918F917F916F915F914F913F912F910E
:100230000F900FBE0F901F9018958FEF81BB8ABB58
:100240001BBA0E9457007894FFCFE0919A00F0917A
:100250009B00EE0FFF1FEE0FFF1FEB59FF4F20E03B
:1002600034E244E755E460817181828193810E9488
:100270000B02609396007093970080939800909380
:1002800099000895EE0FFF1F0590F491E02D099459
:100290005058BB27AA270E9460010C94CC010E94F1
:1002A000BE0138F00E94C50120F039F49F3F19F4D7
:1002B00026F40C94BB010EF4E095E7FB0C94B50119
:1002C000E92F0E94DD0158F3BA176207730784070C
:1002D000950720F079F4A6F50C94FF010EF4E09553
:1002E0000B2EBA2FA02D0B01B90190010C01CA01F0
:1002F000A0011124FF27591B99F0593F50F4503E9B
:1003000068F11A16F040A22F232F342F4427585F8C
:10031000F3CF469537952795A795F0405395C9F7A4
:100320007EF41F16BA0B620B730B840BBAF091505C
:10033000A1F0FF0FBB1F661F771F881FC2F70EC0FB
:10034000BA0F621F731F841F48F4879577956795CE
:10035000B795F7959E3F08F0B0CF9395880F08F0BA
:100360009927EE0F97958795089597F99F6780E8ED
:1003700070E060E008959FEF80EC089500240A94F7
:100380001616170618060906089500240A94121670
:100390001306140605060895092E0394000C11F4A3
:1003A000882352F0BB0F40F4BF2B11F460FF04C050
:1003B0006F5F7F4F8F4F9F4F089557FD9058440FA9
:1003C000551F59F05F3F71F04795880F97FB991FB4
:1003D00061F09F3F79F08795089512161306140671
:1003E000551FF2CF4695F1DF08C0161617061806FE
:1003F000991FF1CF86957105610508940895E894D9
:10040000BB2766277727CB0197F908950E947802CA
:1004100008F48FEF08950E941E020C94CC010E94F4
:10042000BE0138F00E94C50120F0952311F00C9414
:10043000B5010C94BB0111240C9400020E94DD0153
:1004400070F3959FC1F3950F50E0551F629FF00127
:10045000729FBB27F00DB11D639FAA27F00DB11D40
:10046000AA1F649F6627B00DA11D661F829F2227C9
:10047000B00DA11D621F739FB00DA11D621F839F50
:10048000A00D611D221F749F3327A00D611D231F26
:10049000849F600D211D822F762F6A2F11249F5774
:1004A00050409AF0F1F088234AF0EE0FFF1FBB1F77
:1004B000661F771F881F91505040A9F79E3F510536
:1004C00080F00C94B5010C9400025F3FE4F3983E79
:1004D000D4F3869577956795B795F795E7959F5FE0
:1004E000C1F7FE2B880F911D9695879597F9089572
:1004F000990F0008550FAA0BE0E8FEEF1616170635
:10050000E807F907C0F012161306E407F50798F09C
:10051000621B730B840B950B39F40A2661F0232BB5
:10052000242B252B21F408950A2609F4A140A69531
:0C0530008FEF811D811D0895F894FFCF0E
:10053C0005060A0901CDCCCC3DEC51B83D0AD7A338
:10054C003D295C8F3D8FC2753DCDCC4C3D0AD723E8
:0E055C003D8FC2F53C0AD7A33C0AD7233C00D2
:00000001FF
