:100000000C942F000C944C000C944C000C944C005D
:100010000C944C000C944C000C944C000C944C0030
:100020000C944C000C944C000C944C000C94C500A7
:100030000C944C000C944C000C944C000C944C0010
:100040000C944C000C944C000C944C000C944C0000
:100050000C944C0030313233343536373839112472
:100060001FBECFE5D8E0DEBFCDBF10E0A0E6B0E018
:10007000ECEBF7E002C005900D92A436B107D9F77A
:1000800020E0A4E6B0E001C01D92AA36B207E1F775
:100090000E943C010C94DC030C9400001ABA87E81F
:1000A00086B980E487B908958770806487B9369AE5
:1000B000349BFECF349A89EF90E00197F1F700C0AE
:1000C000000084B195B1089592E095BB82BB15BA4A
:1000D00081EE94E00197F1F700C00000089588E3F5
:1000E0000E94640086E00E9464008EE00E9464002A
:1000F00081E00E94640080E80C94640093E095BB6A
:1001000082BB81E085BB81EE94E00197F1F700C0EE
:1001100000000895CF93DF930E948202CB016AE032
:1001200070E00E947B01EC01FB01EC5AFF4F8491CF
:100130000E947E00FE01EC5AFF4F8491DF91CF9127
:100140000C947E007894089581E083BF89BF12BE2D
:1001500080E88CBF089580916400909165000196BD
:10016000843091052CF4909365008093640004C062
:100170001092650010926400E0916400F0916500B7
:10018000E05AFF4F808188BB08951F920F920FB6EF
:100190000F921124CF92DF92EF92FF922F933F9311
:1001A0004F935F936F937F938F939F93AF93BF937F
:1001B000EF93FF9320E030E040E85FE3609166005A
:1001C0007091670080916800909169000E94A4017D
:1001D0006B017C0120E030E043E453E40E944603DD
:1001E00087FF09C0C0926600D0926700E092680065
:1001F000F09269002CC01092660010926700109275
:1002000068001092690080E00E945400BC01990FC0
:10021000880B990B0E94BA0226EF38E24CE950E4B1
:100220000E944B030E948202072E000C880B990B40
:100230000E94BA0220E030E040E251E40E94100245
:100240000E9482026333710514F00E94AB00FF919B
:10025000EF91BF91AF919F918F917F916F915F913E
:100260004F913F912F91FF90EF90DF90CF900F90A3
:100270000FBE0F901F9018958FEF84BB81BB87BB7B
:1002800088E30E9464008FE00E94640081E00E9485
:1002900064000E944E000E946F0078940E94A400A7
:1002A00080E00E945400BC01990F880B990B0E94BA
:1002B000BA0226EF38E24CE950E40E944B036B018E
:1002C0007C0180E80E94640081E00E94640020E0DC
:1002D00030E040E251E4C701B6010E9410020E94E2
:1002E0008A002FE986E891E0215080409040E1F7B4
:1002F00000C00000D5CF97FB072E16F4009407D05E
:1003000077FD09D00E948F0107FC05D03EF490953F
:1003100081959F4F0895709561957F4F0895AA1B11
:10032000BB1B51E107C0AA1FBB1FA617B70710F0E0
:10033000A61BB70B881F991F5A95A9F78095909512
:10034000BC01CD0108955058BB27AA270E94BB01CC
:100350000C940C030E94FE0238F00E94050320F06A
:1003600039F49F3F19F426F40C94FB020EF4E09547
:10037000E7FB0C94F502E92F0E941D0358F3BA170E
:10038000620773078407950720F079F4A6F50C94AB
:100390003F030EF4E0950B2EBA2FA02D0B01B901EF
:1003A00090010C01CA01A0011124FF27591B99F0EB
:1003B000593F50F4503E68F11A16F040A22F232FF7
:1003C000342F4427585FF3CF469537952795A79547
:1003D000F0405395C9F77EF41F16BA0B620B730BEE
:1003E000840BBAF09150A1F0FF0FBB1F661F771F5F
:1003F000881FC2F70EC0BA0F621F731F841F48F414
:10040000879577956795B795F7959E3F08F0B0CF9C
:100410009395880F08F09927EE0F97958795089583
:100420000E9424020C940C030E94050358F00E94C1
:10043000FE0240F029F45F3F29F00C94F5025111BF
:100440000C9440030C94FB020E941D0368F3992353
:10045000B1F3552391F3951B550BBB27AA276217C0
:100460007307840738F09F5F5F4F220F331F441FCD
:10047000AA1FA9F335D00E2E3AF0E0E832D0915001
:100480005040E695001CCAF72BD0FE2F29D0660FEE
:10049000771F881FBB1F261737074807AB07B0E831
:1004A00009F0BB0B802DBF01FF2793585F4F3AF037
:1004B0009E3F510578F00C94F5020C9440035F3F89
:1004C000E4F3983ED4F3869577956795B795F795BD
:1004D0009F5FC9F7880F911D9695879597F90895A5
:1004E000E1E0660F771F881FBB1F62177307840741
:1004F000BA0720F0621B730B840BBA0BEE1F88F750
:10050000E09508950E9489026894B1110C9440030B
:1005100008950E94250388F09F5798F0B92F9927D6
:10052000B751B0F0E1F0660F771F881F991F1AF0DE
:10053000BA95C9F714C0B13091F00E943F03B1E001
:1005400008950C943F03672F782F8827B85F39F000
:10055000B93FCCF3869577956795B395D9F73EF477
:1005600090958095709561957F4F8F4F9F4F08951F
:10057000E89409C097FB3EF490958095709561953D
:100580007F4F8F4F9F4F9923A9F0F92F96E9BB27F3
:100590009395F695879577956795B795F111F8CF6F
:1005A000FAF4BB0F11F460FF1BC06F5F7F4F8F4FDA
:1005B0009F4F16C0882311F096E911C0772321F0D0
:1005C0009EE8872F762F05C0662371F096E8862F68
:1005D00070E060E02AF09A95660F771F881FDAF7BF
:1005E000880F9695879597F9089597F99F6780E802
:1005F00070E060E008959FEF80EC089500240A9475
:100600001616170618060906089500240A941216ED
:100610001306140605060895092E0394000C11F420
:10062000882352F0BB0F40F4BF2B11F460FF04C0CD
:100630006F5F7F4F8F4F9F4F089557FD9058440F26
:10064000551F59F05F3F71F04795880F97FB991F31
:1006500061F09F3F79F087950895121613061406EE
:10066000551FF2CF4695F1DF08C01616170618067B
:10067000991FF1CF86957105610508940895E89456
:10068000BB2766277727CB0197F908950E94B80307
:1006900008F48FEF08950E945E030C940C030E94EF
:1006A000FE0238F00E94050320F0952311F00C940F
:1006B000F5020C94FB0211240C9440030E941D03CC
:1006C00070F3959FC1F3950F50E0551F629FF001A5
:1006D000729FBB27F00DB11D639FAA27F00DB11DBE
:1006E000AA1F649F6627B00DA11D661F829F222747
:1006F000B00DA11D621F739FB00DA11D621F839FCE
:10070000A00D611D221F749F3327A00D611D231FA3
:10071000849F600D211D822F762F6A2F11249F57F1
:1007200050409AF0F1F088234AF0EE0FFF1FBB1FF4
:10073000661F771F881F91505040A9F79E3F5105B3
:1007400080F00C94F5020C9440035F3FE4F3983E74
:10075000D4F3869577956795B795F795E7959F5F5D
:10076000C1F7FE2B880F911D9695879597F90895EF
:10077000990F0008550FAA0BE0E8FEEF16161706B2
:10078000E807F907C0F012161306E407F50798F01A
:10079000621B730B840B950B39F40A2661F0232B33
:1007A000242B252B21F408950A2609F4A140A695AF
:0C07B0008FEF811D811D0895F894FFCF8C
:0407BC0005060A091B
:00000001FF
